{
  "_format": "hh-sol-artifact-1",
  "contractName": "Engagement",
  "sourceName": "contracts/Engagement.sol",
  "abi": [
    {
      "inputs": [
        {
          "internalType": "string",
          "name": "tokenURI_",
          "type": "string"
        }
      ],
      "stateMutability": "nonpayable",
      "type": "constructor"
    },
    {
      "inputs": [],
      "name": "AccessControlBadConfirmation",
      "type": "error"
    },
    {
      "inputs": [
        {
          "internalType": "address",
          "name": "account",
          "type": "address"
        },
        {
          "internalType": "bytes32",
          "name": "neededRole",
          "type": "bytes32"
        }
      ],
      "name": "AccessControlUnauthorizedAccount",
      "type": "error"
    },
    {
      "inputs": [
        {
          "internalType": "address",
          "name": "sender",
          "type": "address"
        },
        {
          "internalType": "uint256",
          "name": "balance",
          "type": "uint256"
        },
        {
          "internalType": "uint256",
          "name": "needed",
          "type": "uint256"
        },
        {
          "internalType": "uint256",
          "name": "tokenId",
          "type": "uint256"
        }
      ],
      "name": "ERC1155InsufficientBalance",
      "type": "error"
    },
    {
      "inputs": [
        {
          "internalType": "address",
          "name": "approver",
          "type": "address"
        }
      ],
      "name": "ERC1155InvalidApprover",
      "type": "error"
    },
    {
      "inputs": [
        {
          "internalType": "uint256",
          "name": "idsLength",
          "type": "uint256"
        },
        {
          "internalType": "uint256",
          "name": "valuesLength",
          "type": "uint256"
        }
      ],
      "name": "ERC1155InvalidArrayLength",
      "type": "error"
    },
    {
      "inputs": [
        {
          "internalType": "address",
          "name": "operator",
          "type": "address"
        }
      ],
      "name": "ERC1155InvalidOperator",
      "type": "error"
    },
    {
      "inputs": [
        {
          "internalType": "address",
          "name": "receiver",
          "type": "address"
        }
      ],
      "name": "ERC1155InvalidReceiver",
      "type": "error"
    },
    {
      "inputs": [
        {
          "internalType": "address",
          "name": "sender",
          "type": "address"
        }
      ],
      "name": "ERC1155InvalidSender",
      "type": "error"
    },
    {
      "inputs": [
        {
          "internalType": "address",
          "name": "operator",
          "type": "address"
        },
        {
          "internalType": "address",
          "name": "owner",
          "type": "address"
        }
      ],
      "name": "ERC1155MissingApprovalForAll",
      "type": "error"
    },
    {
      "inputs": [
        {
          "internalType": "address",
          "name": "account",
          "type": "address"
        },
        {
          "internalType": "uint256",
          "name": "tokenId",
          "type": "uint256"
        }
      ],
      "name": "MintLimit",
      "type": "error"
    },
    {
      "inputs": [
        {
          "internalType": "address",
          "name": "account",
          "type": "address"
        },
        {
          "internalType": "uint256",
          "name": "tokenId",
          "type": "uint256"
        }
      ],
      "name": "NotAllowed",
      "type": "error"
    },
    {
      "inputs": [
        {
          "internalType": "uint256",
          "name": "tokenId",
          "type": "uint256"
        }
      ],
      "name": "NotFound",
      "type": "error"
    },
    {
      "inputs": [
        {
          "internalType": "string",
          "name": "message",
          "type": "string"
        }
      ],
      "name": "URIEmpty",
      "type": "error"
    },
    {
      "anonymous": false,
      "inputs": [
        {
          "indexed": true,
          "internalType": "address",
          "name": "account",
          "type": "address"
        },
        {
          "indexed": true,
          "internalType": "address",
          "name": "operator",
          "type": "address"
        },
        {
          "indexed": false,
          "internalType": "bool",
          "name": "approved",
          "type": "bool"
        }
      ],
      "name": "ApprovalForAll",
      "type": "event"
    },
    {
      "anonymous": false,
      "inputs": [
        {
          "indexed": false,
          "internalType": "string",
          "name": "oldURI",
          "type": "string"
        },
        {
          "indexed": false,
          "internalType": "string",
          "name": "newURI",
          "type": "string"
        }
      ],
      "name": "BaseURIUpdated",
      "type": "event"
    },
    {
      "anonymous": false,
      "inputs": [
        {
          "indexed": true,
          "internalType": "address",
          "name": "account",
          "type": "address"
        },
        {
          "indexed": true,
          "internalType": "uint256",
          "name": "tokenId",
          "type": "uint256"
        },
        {
          "indexed": false,
          "internalType": "uint256",
          "name": "amount",
          "type": "uint256"
        }
      ],
      "name": "Burn",
      "type": "event"
    },
    {
      "anonymous": false,
      "inputs": [
        {
          "indexed": true,
          "internalType": "address",
          "name": "account",
          "type": "address"
        },
        {
          "indexed": true,
          "internalType": "uint256",
          "name": "tokenId",
          "type": "uint256"
        }
      ],
      "name": "Issue",
      "type": "event"
    },
    {
      "anonymous": false,
      "inputs": [
        {
          "indexed": true,
          "internalType": "address",
          "name": "account",
          "type": "address"
        },
        {
          "indexed": true,
          "internalType": "uint256",
          "name": "tokenId",
          "type": "uint256"
        },
        {
          "indexed": false,
          "internalType": "uint256",
          "name": "amount",
          "type": "uint256"
        }
      ],
      "name": "Mint",
      "type": "event"
    },
    {
      "anonymous": false,
      "inputs": [
        {
          "indexed": true,
          "internalType": "bytes32",
          "name": "role",
          "type": "bytes32"
        },
        {
          "indexed": true,
          "internalType": "bytes32",
          "name": "previousAdminRole",
          "type": "bytes32"
        },
        {
          "indexed": true,
          "internalType": "bytes32",
          "name": "newAdminRole",
          "type": "bytes32"
        }
      ],
      "name": "RoleAdminChanged",
      "type": "event"
    },
    {
      "anonymous": false,
      "inputs": [
        {
          "indexed": true,
          "internalType": "bytes32",
          "name": "role",
          "type": "bytes32"
        },
        {
          "indexed": true,
          "internalType": "address",
          "name": "account",
          "type": "address"
        },
        {
          "indexed": true,
          "internalType": "address",
          "name": "sender",
          "type": "address"
        }
      ],
      "name": "RoleGranted",
      "type": "event"
    },
    {
      "anonymous": false,
      "inputs": [
        {
          "indexed": true,
          "internalType": "bytes32",
          "name": "role",
          "type": "bytes32"
        },
        {
          "indexed": true,
          "internalType": "address",
          "name": "account",
          "type": "address"
        },
        {
          "indexed": true,
          "internalType": "address",
          "name": "sender",
          "type": "address"
        }
      ],
      "name": "RoleRevoked",
      "type": "event"
    },
    {
      "anonymous": false,
      "inputs": [
        {
          "indexed": true,
          "internalType": "address",
          "name": "operator",
          "type": "address"
        },
        {
          "indexed": true,
          "internalType": "address",
          "name": "from",
          "type": "address"
        },
        {
          "indexed": true,
          "internalType": "address",
          "name": "to",
          "type": "address"
        },
        {
          "indexed": false,
          "internalType": "uint256[]",
          "name": "ids",
          "type": "uint256[]"
        },
        {
          "indexed": false,
          "internalType": "uint256[]",
          "name": "values",
          "type": "uint256[]"
        }
      ],
      "name": "TransferBatch",
      "type": "event"
    },
    {
      "anonymous": false,
      "inputs": [
        {
          "indexed": true,
          "internalType": "address",
          "name": "operator",
          "type": "address"
        },
        {
          "indexed": true,
          "internalType": "address",
          "name": "from",
          "type": "address"
        },
        {
          "indexed": true,
          "internalType": "address",
          "name": "to",
          "type": "address"
        },
        {
          "indexed": false,
          "internalType": "uint256",
          "name": "id",
          "type": "uint256"
        },
        {
          "indexed": false,
          "internalType": "uint256",
          "name": "value",
          "type": "uint256"
        }
      ],
      "name": "TransferSingle",
      "type": "event"
    },
    {
      "anonymous": false,
      "inputs": [
        {
          "indexed": false,
          "internalType": "string",
          "name": "value",
          "type": "string"
        },
        {
          "indexed": true,
          "internalType": "uint256",
          "name": "id",
          "type": "uint256"
        }
      ],
      "name": "URI",
      "type": "event"
    },
    {
      "inputs": [],
      "name": "DEFAULT_ADMIN_ROLE",
      "outputs": [
        {
          "internalType": "bytes32",
          "name": "",
          "type": "bytes32"
        }
      ],
      "stateMutability": "view",
      "type": "function"
    },
    {
      "inputs": [
        {
          "internalType": "address",
          "name": "account",
          "type": "address"
        },
        {
          "internalType": "uint256",
          "name": "id",
          "type": "uint256"
        }
      ],
      "name": "balanceOf",
      "outputs": [
        {
          "internalType": "uint256",
          "name": "",
          "type": "uint256"
        }
      ],
      "stateMutability": "view",
      "type": "function"
    },
    {
      "inputs": [
        {
          "internalType": "address[]",
          "name": "accounts",
          "type": "address[]"
        },
        {
          "internalType": "uint256[]",
          "name": "ids",
          "type": "uint256[]"
        }
      ],
      "name": "balanceOfBatch",
      "outputs": [
        {
          "internalType": "uint256[]",
          "name": "",
          "type": "uint256[]"
        }
      ],
      "stateMutability": "view",
      "type": "function"
    },
    {
      "inputs": [
        {
          "internalType": "address",
          "name": "account",
          "type": "address"
        },
        {
          "internalType": "uint256",
          "name": "tokenId",
          "type": "uint256"
        },
        {
          "internalType": "uint256",
          "name": "amount",
          "type": "uint256"
        }
      ],
      "name": "burn",
      "outputs": [],
      "stateMutability": "nonpayable",
      "type": "function"
    },
    {
      "inputs": [],
      "name": "counter",
      "outputs": [
        {
          "internalType": "uint256",
          "name": "",
          "type": "uint256"
        }
      ],
      "stateMutability": "view",
      "type": "function"
    },
    {
      "inputs": [
        {
          "internalType": "bytes32",
          "name": "role",
          "type": "bytes32"
        }
      ],
      "name": "getRoleAdmin",
      "outputs": [
        {
          "internalType": "bytes32",
          "name": "",
          "type": "bytes32"
        }
      ],
      "stateMutability": "view",
      "type": "function"
    },
    {
      "inputs": [
        {
          "internalType": "bytes32",
          "name": "role",
          "type": "bytes32"
        },
        {
          "internalType": "address",
          "name": "account",
          "type": "address"
        }
      ],
      "name": "grantRole",
      "outputs": [],
      "stateMutability": "nonpayable",
      "type": "function"
    },
    {
      "inputs": [
        {
          "internalType": "bytes32",
          "name": "role",
          "type": "bytes32"
        },
        {
          "internalType": "address",
          "name": "account",
          "type": "address"
        }
      ],
      "name": "hasRole",
      "outputs": [
        {
          "internalType": "bool",
          "name": "",
          "type": "bool"
        }
      ],
      "stateMutability": "view",
      "type": "function"
    },
    {
      "inputs": [
        {
          "internalType": "address",
          "name": "account",
          "type": "address"
        },
        {
          "internalType": "address",
          "name": "operator",
          "type": "address"
        }
      ],
      "name": "isApprovedForAll",
      "outputs": [
        {
          "internalType": "bool",
          "name": "",
          "type": "bool"
        }
      ],
      "stateMutability": "view",
      "type": "function"
    },
    {
      "inputs": [],
      "name": "issue",
      "outputs": [],
      "stateMutability": "nonpayable",
      "type": "function"
    },
    {
      "inputs": [
        {
          "internalType": "address",
          "name": "account",
          "type": "address"
        },
        {
          "internalType": "uint256",
          "name": "tokenId",
          "type": "uint256"
        },
        {
          "internalType": "uint256",
          "name": "amount",
          "type": "uint256"
        },
        {
          "internalType": "bytes",
          "name": "data",
          "type": "bytes"
        }
      ],
      "name": "mint",
      "outputs": [],
      "stateMutability": "nonpayable",
      "type": "function"
    },
    {
      "inputs": [
        {
          "internalType": "bytes32",
          "name": "role",
          "type": "bytes32"
        },
        {
          "internalType": "address",
          "name": "callerConfirmation",
          "type": "address"
        }
      ],
      "name": "renounceRole",
      "outputs": [],
      "stateMutability": "nonpayable",
      "type": "function"
    },
    {
      "inputs": [
        {
          "internalType": "bytes32",
          "name": "role",
          "type": "bytes32"
        },
        {
          "internalType": "address",
          "name": "account",
          "type": "address"
        }
      ],
      "name": "revokeRole",
      "outputs": [],
      "stateMutability": "nonpayable",
      "type": "function"
    },
    {
      "inputs": [
        {
          "internalType": "address",
          "name": "from",
          "type": "address"
        },
        {
          "internalType": "address",
          "name": "to",
          "type": "address"
        },
        {
          "internalType": "uint256[]",
          "name": "ids",
          "type": "uint256[]"
        },
        {
          "internalType": "uint256[]",
          "name": "values",
          "type": "uint256[]"
        },
        {
          "internalType": "bytes",
          "name": "data",
          "type": "bytes"
        }
      ],
      "name": "safeBatchTransferFrom",
      "outputs": [],
      "stateMutability": "nonpayable",
      "type": "function"
    },
    {
      "inputs": [
        {
          "internalType": "address",
          "name": "from",
          "type": "address"
        },
        {
          "internalType": "address",
          "name": "to",
          "type": "address"
        },
        {
          "internalType": "uint256",
          "name": "id",
          "type": "uint256"
        },
        {
          "internalType": "uint256",
          "name": "value",
          "type": "uint256"
        },
        {
          "internalType": "bytes",
          "name": "data",
          "type": "bytes"
        }
      ],
      "name": "safeTransferFrom",
      "outputs": [],
      "stateMutability": "nonpayable",
      "type": "function"
    },
    {
      "inputs": [
        {
          "internalType": "address",
          "name": "operator",
          "type": "address"
        },
        {
          "internalType": "bool",
          "name": "approved",
          "type": "bool"
        }
      ],
      "name": "setApprovalForAll",
      "outputs": [],
      "stateMutability": "nonpayable",
      "type": "function"
    },
    {
      "inputs": [
        {
          "internalType": "bytes4",
          "name": "interfaceId",
          "type": "bytes4"
        }
      ],
      "name": "supportsInterface",
      "outputs": [
        {
          "internalType": "bool",
          "name": "",
          "type": "bool"
        }
      ],
      "stateMutability": "view",
      "type": "function"
    },
    {
      "inputs": [
        {
          "internalType": "string",
          "name": "newURI",
          "type": "string"
        }
      ],
      "name": "updateBaseURI",
      "outputs": [],
      "stateMutability": "nonpayable",
      "type": "function"
    },
    {
      "inputs": [
        {
          "internalType": "uint256",
          "name": "",
          "type": "uint256"
        }
      ],
      "name": "uri",
      "outputs": [
        {
          "internalType": "string",
          "name": "",
          "type": "string"
        }
      ],
      "stateMutability": "view",
      "type": "function"
    },
    {
      "inputs": [
        {
          "internalType": "uint256",
          "name": "tokenId",
          "type": "uint256"
        },
        {
          "internalType": "string",
          "name": "account",
          "type": "string"
        }
      ],
      "name": "uri",
      "outputs": [
        {
          "internalType": "string",
          "name": "",
          "type": "string"
        }
      ],
      "stateMutability": "view",
      "type": "function"
    }
  ],
  "bytecode": "0x608060405234801561001057600080fd5b50604051613e29380380613e29833981810160405281019061003291906103cb565b604051806020016040528060008152506100518161008b60201b60201c565b506100618161009e60201b60201c565b6100746000801b336100e560201b60201c565b5080600590816100849190610635565b5050610784565b806002908161009a9190610635565b5050565b60008151036100e2576040517f1897cf660000000000000000000000000000000000000000000000000000000081526004016100d990610764565b60405180910390fd5b50565b60006100f783836101e360201b60201c565b6101d85760016003600085815260200190815260200160002060000160008473ffffffffffffffffffffffffffffffffffffffff1673ffffffffffffffffffffffffffffffffffffffff16815260200190815260200160002060006101000a81548160ff02191690831515021790555061017561024e60201b60201c565b73ffffffffffffffffffffffffffffffffffffffff168273ffffffffffffffffffffffffffffffffffffffff16847f2f8788117e7eff1d82e926ec794901d17c78024a50270940304540a733656f0d60405160405180910390a4600190506101dd565b600090505b92915050565b60006003600084815260200190815260200160002060000160008373ffffffffffffffffffffffffffffffffffffffff1673ffffffffffffffffffffffffffffffffffffffff16815260200190815260200160002060009054906101000a900460ff16905092915050565b600033905090565b6000604051905090565b600080fd5b600080fd5b600080fd5b600080fd5b6000601f19601f8301169050919050565b7f4e487b7100000000000000000000000000000000000000000000000000000000600052604160045260246000fd5b6102bd82610274565b810181811067ffffffffffffffff821117156102dc576102db610285565b5b80604052505050565b60006102ef610256565b90506102fb82826102b4565b919050565b600067ffffffffffffffff82111561031b5761031a610285565b5b61032482610274565b9050602081019050919050565b60005b8381101561034f578082015181840152602081019050610334565b60008484015250505050565b600061036e61036984610300565b6102e5565b90508281526020810184848401111561038a5761038961026f565b5b610395848285610331565b509392505050565b600082601f8301126103b2576103b161026a565b5b81516103c284826020860161035b565b91505092915050565b6000602082840312156103e1576103e0610260565b5b600082015167ffffffffffffffff8111156103ff576103fe610265565b5b61040b8482850161039d565b91505092915050565b600081519050919050565b7f4e487b7100000000000000000000000000000000000000000000000000000000600052602260045260246000fd5b6000600282049050600182168061046657607f821691505b6020821081036104795761047861041f565b5b50919050565b60008190508160005260206000209050919050565b60006020601f8301049050919050565b600082821b905092915050565b6000600883026104e17fffffffffffffffffffffffffffffffffffffffffffffffffffffffffffffffff826104a4565b6104eb86836104a4565b95508019841693508086168417925050509392505050565b6000819050919050565b6000819050919050565b600061053261052d61052884610503565b61050d565b610503565b9050919050565b6000819050919050565b61054c83610517565b61056061055882610539565b8484546104b1565b825550505050565b600090565b610575610568565b610580818484610543565b505050565b5b818110156105a45761059960008261056d565b600181019050610586565b5050565b601f8211156105e9576105ba8161047f565b6105c384610494565b810160208510156105d2578190505b6105e66105de85610494565b830182610585565b50505b505050565b600082821c905092915050565b600061060c600019846008026105ee565b1980831691505092915050565b600061062583836105fb565b9150826002028217905092915050565b61063e82610414565b67ffffffffffffffff81111561065757610656610285565b5b610661825461044e565b61066c8282856105a8565b600060209050601f83116001811461069f576000841561068d578287015190505b6106978582610619565b8655506106ff565b601f1984166106ad8661047f565b60005b828110156106d5578489015182556001820191506020850194506020810190506106b0565b868310156106f257848901516106ee601f8916826105fb565b8355505b6001600288020188555050505b505050505050565b600082825260208201905092915050565b7f5552492063616e6e6f7420626520656d70747900000000000000000000000000600082015250565b600061074e601383610707565b915061075982610718565b602082019050919050565b6000602082019050818103600083015261077d81610741565b9050919050565b613696806107936000396000f3fe608060405234801561001057600080fd5b506004361061012b5760003560e01c806376b676f1116100ad578063d383f64611610071578063d383f64614610364578063d547741f1461036e578063e985e9c51461038a578063f242432a146103ba578063f5298aca146103d65761012b565b806376b676f1146102ae57806391d14854146102de578063931688cb1461030e578063a217fddf1461032a578063a22cb465146103485761012b565b80632f2ff15d116100f45780632f2ff15d1461020c57806336568abe146102285780634e1273f41461024457806361bc221a14610274578063731133e9146102925761012b565b8062fdd58e1461013057806301ffc9a7146101605780630e89341c14610190578063248a9ca3146101c05780632eb2c2d6146101f0575b600080fd5b61014a6004803603810190610145919061216b565b6103f2565b60405161015791906121ba565b60405180910390f35b61017a6004803603810190610175919061222d565b61044c565b6040516101879190612275565b60405180910390f35b6101aa60048036038101906101a59190612290565b61048c565b6040516101b7919061234d565b60405180910390f35b6101da60048036038101906101d591906123a5565b610520565b6040516101e791906123e1565b60405180910390f35b61020a600480360381019061020591906125f9565b610540565b005b610226600480360381019061022191906126c8565b6105e8565b005b610242600480360381019061023d91906126c8565b61060a565b005b61025e600480360381019061025991906127cb565b610685565b60405161026b9190612901565b60405180910390f35b61027c61078e565b60405161028991906121ba565b60405180910390f35b6102ac60048036038101906102a79190612923565b610798565b005b6102c860048036038101906102c39190612a47565b610856565b6040516102d5919061234d565b60405180910390f35b6102f860048036038101906102f391906126c8565b610898565b6040516103059190612275565b60405180910390f35b61032860048036038101906103239190612aa3565b610903565b005b610332610967565b60405161033f91906123e1565b60405180910390f35b610362600480360381019061035d9190612b18565b61096e565b005b61036c610984565b005b610388600480360381019061038391906126c8565b610a01565b005b6103a4600480360381019061039f9190612b58565b610a23565b6040516103b19190612275565b60405180910390f35b6103d460048036038101906103cf9190612b98565b610ab7565b005b6103f060048036038101906103eb9190612c2f565b610b5f565b005b600080600083815260200190815260200160002060008473ffffffffffffffffffffffffffffffffffffffff1673ffffffffffffffffffffffffffffffffffffffff16815260200190815260200160002054905092915050565b600061046d3073ffffffffffffffffffffffffffffffffffffffff16610c41565b156104825761047b82610c8e565b9050610487565b600090505b919050565b60606002805461049b90612cb1565b80601f01602080910402602001604051908101604052809291908181526020018280546104c790612cb1565b80156105145780601f106104e957610100808354040283529160200191610514565b820191906000526020600020905b8154815290600101906020018083116104f757829003601f168201915b50505050509050919050565b600060036000838152602001908152602001600020600101549050919050565b600061054a610d08565b90508073ffffffffffffffffffffffffffffffffffffffff168673ffffffffffffffffffffffffffffffffffffffff161415801561058f575061058d8682610a23565b155b156105d35780866040517fe237d9220000000000000000000000000000000000000000000000000000000081526004016105ca929190612cf1565b60405180910390fd5b6105e08686868686610d10565b505050505050565b6105f182610520565b6105fa81610e08565b6106048383610e1c565b50505050565b610612610d08565b73ffffffffffffffffffffffffffffffffffffffff168173ffffffffffffffffffffffffffffffffffffffff1614610676576040517f6697b23200000000000000000000000000000000000000000000000000000000815260040160405180910390fd5b6106808282610f0e565b505050565b606081518351146106d157815183516040517f5b0599910000000000000000000000000000000000000000000000000000000081526004016106c8929190612d1a565b60405180910390fd5b6000835167ffffffffffffffff8111156106ee576106ed612401565b5b60405190808252806020026020018201604052801561071c5781602001602082028036833780820191505090505b50905060005b845181101561078357610759610741828761100190919063ffffffff16565b610754838761101590919063ffffffff16565b6103f2565b82828151811061076c5761076b612d43565b5b602002602001018181525050806001019050610722565b508091505092915050565b6000600454905090565b826107a281611029565b60016107ae86866103f2565b106107f25784846040517f788d25560000000000000000000000000000000000000000000000000000000081526004016107e9929190612d72565b60405180910390fd5b6107ff8585600185611072565b838573ffffffffffffffffffffffffffffffffffffffff167f4c209b5fc8ad50758f13e2e1088ba56a560dff690a1c6fef26394f4c03821c4f60016040516108479190612de0565b60405180910390a35050505050565b60608261086281611029565b600561086d8561110b565b8460405160200161088093929190612fb3565b60405160208183030381529060405291505092915050565b60006003600084815260200190815260200160002060000160008373ffffffffffffffffffffffffffffffffffffffff1673ffffffffffffffffffffffffffffffffffffffff16815260200190815260200160002060009054906101000a900460ff16905092915050565b6000801b61091081610e08565b610919826111d9565b7f309b29ded109b9e28fb9885757b3e0096eb75c51d23aa4635d68bcd569f6adc160058360405161094b929190613089565b60405180910390a18160059081610962919061324d565b505050565b6000801b81565b610980610979610d08565b8383611220565b5050565b600060045490506109a73382600160405180602001604052806000815250611072565b803373ffffffffffffffffffffffffffffffffffffffff167fc65a3f767206d2fdcede0b094a4840e01c0dd0be1888b5ba800346eaa0123c1660405160405180910390a36001816109f8919061334e565b60048190555050565b610a0a82610520565b610a1381610e08565b610a1d8383610f0e565b50505050565b6000600160008473ffffffffffffffffffffffffffffffffffffffff1673ffffffffffffffffffffffffffffffffffffffff16815260200190815260200160002060008373ffffffffffffffffffffffffffffffffffffffff1673ffffffffffffffffffffffffffffffffffffffff16815260200190815260200160002060009054906101000a900460ff16905092915050565b6000610ac1610d08565b90508073ffffffffffffffffffffffffffffffffffffffff168673ffffffffffffffffffffffffffffffffffffffff1614158015610b065750610b048682610a23565b155b15610b4a5780866040517fe237d922000000000000000000000000000000000000000000000000000000008152600401610b41929190612cf1565b60405180910390fd5b610b578686868686611390565b505050505050565b81610b6981611029565b83833373ffffffffffffffffffffffffffffffffffffffff168273ffffffffffffffffffffffffffffffffffffffff1614610bdd5781816040517f8626cc03000000000000000000000000000000000000000000000000000000008152600401610bd4929190612d72565b60405180910390fd5b610be98686600161149b565b848673ffffffffffffffffffffffffffffffffffffffff167f49995e5dd6158cf69ad3e9777c46755a1a826a446c6416992167462dad033b2a6001604051610c319190612de0565b60405180910390a3505050505050565b6000610c6d827f01ffc9a700000000000000000000000000000000000000000000000000000000611542565b8015610c875750610c858263ffffffff60e01b611542565b155b9050919050565b60007f7965db0b000000000000000000000000000000000000000000000000000000007bffffffffffffffffffffffffffffffffffffffffffffffffffffffff1916827bffffffffffffffffffffffffffffffffffffffffffffffffffffffff19161480610d015750610d00826115e1565b5b9050919050565b600033905090565b600073ffffffffffffffffffffffffffffffffffffffff168473ffffffffffffffffffffffffffffffffffffffff1603610d825760006040517f57f447ce000000000000000000000000000000000000000000000000000000008152600401610d799190613382565b60405180910390fd5b600073ffffffffffffffffffffffffffffffffffffffff168573ffffffffffffffffffffffffffffffffffffffff1603610df45760006040517f01a83514000000000000000000000000000000000000000000000000000000008152600401610deb9190613382565b60405180910390fd5b610e0185858585856116c3565b5050505050565b610e1981610e14610d08565b611775565b50565b6000610e288383610898565b610f035760016003600085815260200190815260200160002060000160008473ffffffffffffffffffffffffffffffffffffffff1673ffffffffffffffffffffffffffffffffffffffff16815260200190815260200160002060006101000a81548160ff021916908315150217905550610ea0610d08565b73ffffffffffffffffffffffffffffffffffffffff168273ffffffffffffffffffffffffffffffffffffffff16847f2f8788117e7eff1d82e926ec794901d17c78024a50270940304540a733656f0d60405160405180910390a460019050610f08565b600090505b92915050565b6000610f1a8383610898565b15610ff65760006003600085815260200190815260200160002060000160008473ffffffffffffffffffffffffffffffffffffffff1673ffffffffffffffffffffffffffffffffffffffff16815260200190815260200160002060006101000a81548160ff021916908315150217905550610f93610d08565b73ffffffffffffffffffffffffffffffffffffffff168273ffffffffffffffffffffffffffffffffffffffff16847ff6391f5c32d9c69d2a47ea670b442974b53935d1edc7fd64eb21e047a839171b60405160405180910390a460019050610ffb565b600090505b92915050565b600060208202602084010151905092915050565b600060208202602084010151905092915050565b600454811061106f57806040517fc80a970c00000000000000000000000000000000000000000000000000000000815260040161106691906121ba565b60405180910390fd5b50565b600073ffffffffffffffffffffffffffffffffffffffff168473ffffffffffffffffffffffffffffffffffffffff16036110e45760006040517f57f447ce0000000000000000000000000000000000000000000000000000000081526004016110db9190613382565b60405180910390fd5b6000806110f185856117c6565b915091506111036000878484876116c3565b505050505050565b60606000600161111a846117f6565b01905060008167ffffffffffffffff81111561113957611138612401565b5b6040519080825280601f01601f19166020018201604052801561116b5781602001600182028036833780820191505090505b509050600082602001820190505b6001156111ce578080600190039150507f3031323334353637383961626364656600000000000000000000000000000000600a86061a8153600a85816111c2576111c161339d565b5b04945060008503611179575b819350505050919050565b600081510361121d576040517f1897cf6600000000000000000000000000000000000000000000000000000000815260040161121490613418565b60405180910390fd5b50565b600073ffffffffffffffffffffffffffffffffffffffff168273ffffffffffffffffffffffffffffffffffffffff16036112925760006040517fced3e1000000000000000000000000000000000000000000000000000000000081526004016112899190613382565b60405180910390fd5b80600160008573ffffffffffffffffffffffffffffffffffffffff1673ffffffffffffffffffffffffffffffffffffffff16815260200190815260200160002060008473ffffffffffffffffffffffffffffffffffffffff1673ffffffffffffffffffffffffffffffffffffffff16815260200190815260200160002060006101000a81548160ff0219169083151502179055508173ffffffffffffffffffffffffffffffffffffffff168373ffffffffffffffffffffffffffffffffffffffff167f17307eab39ab6107e8899845ad3d59bd9653f200f220920489ca2b5937696c31836040516113839190612275565b60405180910390a3505050565b600073ffffffffffffffffffffffffffffffffffffffff168473ffffffffffffffffffffffffffffffffffffffff16036114025760006040517f57f447ce0000000000000000000000000000000000000000000000000000000081526004016113f99190613382565b60405180910390fd5b600073ffffffffffffffffffffffffffffffffffffffff168573ffffffffffffffffffffffffffffffffffffffff16036114745760006040517f01a8351400000000000000000000000000000000000000000000000000000000815260040161146b9190613382565b60405180910390fd5b60008061148185856117c6565b9150915061149287878484876116c3565b50505050505050565b600073ffffffffffffffffffffffffffffffffffffffff168373ffffffffffffffffffffffffffffffffffffffff160361150d5760006040517f01a835140000000000000000000000000000000000000000000000000000000081526004016115049190613382565b60405180910390fd5b60008061151a84846117c6565b9150915061153b8560008484604051806020016040528060008152506116c3565b5050505050565b600080826040516024016115569190613447565b6040516020818303038152906040526301ffc9a760e01b6020820180517bffffffffffffffffffffffffffffffffffffffffffffffffffffffff838183161783525050505090506000806000602060008551602087018a617530fa92503d915060005190508280156115c9575060208210155b80156115d55750600081115b94505050505092915050565b60007fd9b67a26000000000000000000000000000000000000000000000000000000007bffffffffffffffffffffffffffffffffffffffffffffffffffffffff1916827bffffffffffffffffffffffffffffffffffffffffffffffffffffffff191614806116ac57507f0e89341c000000000000000000000000000000000000000000000000000000007bffffffffffffffffffffffffffffffffffffffffffffffffffffffff1916827bffffffffffffffffffffffffffffffffffffffffffffffffffffffff1916145b806116bc57506116bb82611949565b5b9050919050565b6116cf858585856119b3565b600073ffffffffffffffffffffffffffffffffffffffff168473ffffffffffffffffffffffffffffffffffffffff161461176e57600061170d610d08565b9050600184510361175d57600061172e60008661101590919063ffffffff16565b9050600061174660008661101590919063ffffffff16565b9050611756838989858589611d5b565b505061176c565b61176b818787878787611f0f565b5b505b5050505050565b61177f8282610898565b6117c25780826040517fe2517d3f0000000000000000000000000000000000000000000000000000000081526004016117b9929190613462565b60405180910390fd5b5050565b60608060405191506001825283602083015260408201905060018152826020820152604081016040529250929050565b600080600090507a184f03e93ff9f4daa797ed6e38ed64bf6a1f0100000000000000008310611854577a184f03e93ff9f4daa797ed6e38ed64bf6a1f010000000000000000838161184a5761184961339d565b5b0492506040810190505b6d04ee2d6d415b85acef81000000008310611891576d04ee2d6d415b85acef810000000083816118875761188661339d565b5b0492506020810190505b662386f26fc1000083106118c057662386f26fc1000083816118b6576118b561339d565b5b0492506010810190505b6305f5e10083106118e9576305f5e10083816118df576118de61339d565b5b0492506008810190505b612710831061190e5761271083816119045761190361339d565b5b0492506004810190505b6064831061193157606483816119275761192661339d565b5b0492506002810190505b600a8310611940576001810190505b80915050919050565b60007f01ffc9a7000000000000000000000000000000000000000000000000000000007bffffffffffffffffffffffffffffffffffffffffffffffffffffffff1916827bffffffffffffffffffffffffffffffffffffffffffffffffffffffff1916149050919050565b80518251146119fd57815181516040517f5b0599910000000000000000000000000000000000000000000000000000000081526004016119f4929190612d1a565b60405180910390fd5b6000611a07610d08565b905060005b8351811015611c16576000611a2a828661101590919063ffffffff16565b90506000611a41838661101590919063ffffffff16565b9050600073ffffffffffffffffffffffffffffffffffffffff168873ffffffffffffffffffffffffffffffffffffffff1614611b6e57600080600084815260200190815260200160002060008a73ffffffffffffffffffffffffffffffffffffffff1673ffffffffffffffffffffffffffffffffffffffff16815260200190815260200160002054905081811015611b1657888183856040517f03dee4c5000000000000000000000000000000000000000000000000000000008152600401611b0d949392919061348b565b60405180910390fd5b81810360008085815260200190815260200160002060008b73ffffffffffffffffffffffffffffffffffffffff1673ffffffffffffffffffffffffffffffffffffffff16815260200190815260200160002081905550505b600073ffffffffffffffffffffffffffffffffffffffff168773ffffffffffffffffffffffffffffffffffffffff1614611c09578060008084815260200190815260200160002060008973ffffffffffffffffffffffffffffffffffffffff1673ffffffffffffffffffffffffffffffffffffffff1681526020019081526020016000206000828254611c01919061334e565b925050819055505b5050806001019050611a0c565b506001835103611cd5576000611c3660008561101590919063ffffffff16565b90506000611c4e60008561101590919063ffffffff16565b90508573ffffffffffffffffffffffffffffffffffffffff168773ffffffffffffffffffffffffffffffffffffffff168473ffffffffffffffffffffffffffffffffffffffff167fc3d58168c5ae7397731d063d5bbf3d657854427343f4c083240f7aacaa2d0f628585604051611cc6929190612d1a565b60405180910390a45050611d54565b8373ffffffffffffffffffffffffffffffffffffffff168573ffffffffffffffffffffffffffffffffffffffff168273ffffffffffffffffffffffffffffffffffffffff167f4a39dc06d4c0dbc64b70af90fd698a233a518aa5d07e595d983b8c0526c8f7fb8686604051611d4b9291906134d0565b60405180910390a45b5050505050565b60008473ffffffffffffffffffffffffffffffffffffffff163b1115611f07578373ffffffffffffffffffffffffffffffffffffffff1663f23a6e6187878686866040518663ffffffff1660e01b8152600401611dbc95949392919061355c565b6020604051808303816000875af1925050508015611df857506040513d601f19601f82011682018060405250810190611df591906135cb565b60015b611e7c573d8060008114611e28576040519150601f19603f3d011682016040523d82523d6000602084013e611e2d565b606091505b506000815103611e7457846040517f57f447ce000000000000000000000000000000000000000000000000000000008152600401611e6b9190613382565b60405180910390fd5b805181602001fd5b63f23a6e6160e01b7bffffffffffffffffffffffffffffffffffffffffffffffffffffffff1916817bffffffffffffffffffffffffffffffffffffffffffffffffffffffff191614611f0557846040517f57f447ce000000000000000000000000000000000000000000000000000000008152600401611efc9190613382565b60405180910390fd5b505b505050505050565b60008473ffffffffffffffffffffffffffffffffffffffff163b11156120bb578373ffffffffffffffffffffffffffffffffffffffff1663bc197c8187878686866040518663ffffffff1660e01b8152600401611f709594939291906135f8565b6020604051808303816000875af1925050508015611fac57506040513d601f19601f82011682018060405250810190611fa991906135cb565b60015b612030573d8060008114611fdc576040519150601f19603f3d011682016040523d82523d6000602084013e611fe1565b606091505b50600081510361202857846040517f57f447ce00000000000000000000000000000000000000000000000000000000815260040161201f9190613382565b60405180910390fd5b805181602001fd5b63bc197c8160e01b7bffffffffffffffffffffffffffffffffffffffffffffffffffffffff1916817bffffffffffffffffffffffffffffffffffffffffffffffffffffffff1916146120b957846040517f57f447ce0000000000000000000000000000000000000000000000000000000081526004016120b09190613382565b60405180910390fd5b505b505050505050565b6000604051905090565b600080fd5b600080fd5b600073ffffffffffffffffffffffffffffffffffffffff82169050919050565b6000612102826120d7565b9050919050565b612112816120f7565b811461211d57600080fd5b50565b60008135905061212f81612109565b92915050565b6000819050919050565b61214881612135565b811461215357600080fd5b50565b6000813590506121658161213f565b92915050565b60008060408385031215612182576121816120cd565b5b600061219085828601612120565b92505060206121a185828601612156565b9150509250929050565b6121b481612135565b82525050565b60006020820190506121cf60008301846121ab565b92915050565b60007fffffffff0000000000000000000000000000000000000000000000000000000082169050919050565b61220a816121d5565b811461221557600080fd5b50565b60008135905061222781612201565b92915050565b600060208284031215612243576122426120cd565b5b600061225184828501612218565b91505092915050565b60008115159050919050565b61226f8161225a565b82525050565b600060208201905061228a6000830184612266565b92915050565b6000602082840312156122a6576122a56120cd565b5b60006122b484828501612156565b91505092915050565b600081519050919050565b600082825260208201905092915050565b60005b838110156122f75780820151818401526020810190506122dc565b60008484015250505050565b6000601f19601f8301169050919050565b600061231f826122bd565b61232981856122c8565b93506123398185602086016122d9565b61234281612303565b840191505092915050565b600060208201905081810360008301526123678184612314565b905092915050565b6000819050919050565b6123828161236f565b811461238d57600080fd5b50565b60008135905061239f81612379565b92915050565b6000602082840312156123bb576123ba6120cd565b5b60006123c984828501612390565b91505092915050565b6123db8161236f565b82525050565b60006020820190506123f660008301846123d2565b92915050565b600080fd5b7f4e487b7100000000000000000000000000000000000000000000000000000000600052604160045260246000fd5b61243982612303565b810181811067ffffffffffffffff8211171561245857612457612401565b5b80604052505050565b600061246b6120c3565b90506124778282612430565b919050565b600067ffffffffffffffff82111561249757612496612401565b5b602082029050602081019050919050565b600080fd5b60006124c06124bb8461247c565b612461565b905080838252602082019050602084028301858111156124e3576124e26124a8565b5b835b8181101561250c57806124f88882612156565b8452602084019350506020810190506124e5565b5050509392505050565b600082601f83011261252b5761252a6123fc565b5b813561253b8482602086016124ad565b91505092915050565b600080fd5b600067ffffffffffffffff82111561256457612563612401565b5b61256d82612303565b9050602081019050919050565b82818337600083830152505050565b600061259c61259784612549565b612461565b9050828152602081018484840111156125b8576125b7612544565b5b6125c384828561257a565b509392505050565b600082601f8301126125e0576125df6123fc565b5b81356125f0848260208601612589565b91505092915050565b600080600080600060a08688031215612615576126146120cd565b5b600061262388828901612120565b955050602061263488828901612120565b945050604086013567ffffffffffffffff811115612655576126546120d2565b5b61266188828901612516565b935050606086013567ffffffffffffffff811115612682576126816120d2565b5b61268e88828901612516565b925050608086013567ffffffffffffffff8111156126af576126ae6120d2565b5b6126bb888289016125cb565b9150509295509295909350565b600080604083850312156126df576126de6120cd565b5b60006126ed85828601612390565b92505060206126fe85828601612120565b9150509250929050565b600067ffffffffffffffff82111561272357612722612401565b5b602082029050602081019050919050565b600061274761274284612708565b612461565b9050808382526020820190506020840283018581111561276a576127696124a8565b5b835b81811015612793578061277f8882612120565b84526020840193505060208101905061276c565b5050509392505050565b600082601f8301126127b2576127b16123fc565b5b81356127c2848260208601612734565b91505092915050565b600080604083850312156127e2576127e16120cd565b5b600083013567ffffffffffffffff811115612800576127ff6120d2565b5b61280c8582860161279d565b925050602083013567ffffffffffffffff81111561282d5761282c6120d2565b5b61283985828601612516565b9150509250929050565b600081519050919050565b600082825260208201905092915050565b6000819050602082019050919050565b61287881612135565b82525050565b600061288a838361286f565b60208301905092915050565b6000602082019050919050565b60006128ae82612843565b6128b8818561284e565b93506128c38361285f565b8060005b838110156128f45781516128db888261287e565b97506128e683612896565b9250506001810190506128c7565b5085935050505092915050565b6000602082019050818103600083015261291b81846128a3565b905092915050565b6000806000806080858703121561293d5761293c6120cd565b5b600061294b87828801612120565b945050602061295c87828801612156565b935050604061296d87828801612156565b925050606085013567ffffffffffffffff81111561298e5761298d6120d2565b5b61299a878288016125cb565b91505092959194509250565b600067ffffffffffffffff8211156129c1576129c0612401565b5b6129ca82612303565b9050602081019050919050565b60006129ea6129e5846129a6565b612461565b905082815260208101848484011115612a0657612a05612544565b5b612a1184828561257a565b509392505050565b600082601f830112612a2e57612a2d6123fc565b5b8135612a3e8482602086016129d7565b91505092915050565b60008060408385031215612a5e57612a5d6120cd565b5b6000612a6c85828601612156565b925050602083013567ffffffffffffffff811115612a8d57612a8c6120d2565b5b612a9985828601612a19565b9150509250929050565b600060208284031215612ab957612ab86120cd565b5b600082013567ffffffffffffffff811115612ad757612ad66120d2565b5b612ae384828501612a19565b91505092915050565b612af58161225a565b8114612b0057600080fd5b50565b600081359050612b1281612aec565b92915050565b60008060408385031215612b2f57612b2e6120cd565b5b6000612b3d85828601612120565b9250506020612b4e85828601612b03565b9150509250929050565b60008060408385031215612b6f57612b6e6120cd565b5b6000612b7d85828601612120565b9250506020612b8e85828601612120565b9150509250929050565b600080600080600060a08688031215612bb457612bb36120cd565b5b6000612bc288828901612120565b9550506020612bd388828901612120565b9450506040612be488828901612156565b9350506060612bf588828901612156565b925050608086013567ffffffffffffffff811115612c1657612c156120d2565b5b612c22888289016125cb565b9150509295509295909350565b600080600060608486031215612c4857612c476120cd565b5b6000612c5686828701612120565b9350506020612c6786828701612156565b9250506040612c7886828701612156565b9150509250925092565b7f4e487b7100000000000000000000000000000000000000000000000000000000600052602260045260246000fd5b60006002820490506001821680612cc957607f821691505b602082108103612cdc57612cdb612c82565b5b50919050565b612ceb816120f7565b82525050565b6000604082019050612d066000830185612ce2565b612d136020830184612ce2565b9392505050565b6000604082019050612d2f60008301856121ab565b612d3c60208301846121ab565b9392505050565b7f4e487b7100000000000000000000000000000000000000000000000000000000600052603260045260246000fd5b6000604082019050612d876000830185612ce2565b612d9460208301846121ab565b9392505050565b6000819050919050565b6000819050919050565b6000612dca612dc5612dc084612d9b565b612da5565b612135565b9050919050565b612dda81612daf565b82525050565b6000602082019050612df56000830184612dd1565b92915050565b600081905092915050565b60008190508160005260206000209050919050565b60008154612e2881612cb1565b612e328186612dfb565b94506001821660008114612e4d5760018114612e6257612e95565b60ff1983168652811515820286019350612e95565b612e6b85612e06565b60005b83811015612e8d57815481890152600182019150602081019050612e6e565b838801955050505b50505092915050565b7f2f6170692f76312f6e66742f0000000000000000000000000000000000000000600082015250565b6000612ed4600c83612dfb565b9150612edf82612e9e565b600c82019050919050565b6000612ef5826122bd565b612eff8185612dfb565b9350612f0f8185602086016122d9565b80840191505092915050565b7f2f00000000000000000000000000000000000000000000000000000000000000600082015250565b6000612f51600183612dfb565b9150612f5c82612f1b565b600182019050919050565b7f2f72657075746174696f6e2d73636f7265000000000000000000000000000000600082015250565b6000612f9d601183612dfb565b9150612fa882612f67565b601182019050919050565b6000612fbf8286612e1b565b9150612fca82612ec7565b9150612fd68285612eea565b9150612fe182612f44565b9150612fed8284612eea565b9150612ff882612f90565b9150819050949350505050565b6000815461301281612cb1565b61301c81866122c8565b94506001821660008114613037576001811461304d57613080565b60ff198316865281151560200286019350613080565b61305685612e06565b60005b8381101561307857815481890152600182019150602081019050613059565b808801955050505b50505092915050565b600060408201905081810360008301526130a38185613005565b905081810360208301526130b78184612314565b90509392505050565b60006020601f8301049050919050565b600082821b905092915050565b60006008830261310d7fffffffffffffffffffffffffffffffffffffffffffffffffffffffffffffffff826130d0565b61311786836130d0565b95508019841693508086168417925050509392505050565b600061314a61314561314084612135565b612da5565b612135565b9050919050565b6000819050919050565b6131648361312f565b61317861317082613151565b8484546130dd565b825550505050565b600090565b61318d613180565b61319881848461315b565b505050565b5b818110156131bc576131b1600082613185565b60018101905061319e565b5050565b601f821115613201576131d281612e06565b6131db846130c0565b810160208510156131ea578190505b6131fe6131f6856130c0565b83018261319d565b50505b505050565b600082821c905092915050565b600061322460001984600802613206565b1980831691505092915050565b600061323d8383613213565b9150826002028217905092915050565b613256826122bd565b67ffffffffffffffff81111561326f5761326e612401565b5b6132798254612cb1565b6132848282856131c0565b600060209050601f8311600181146132b757600084156132a5578287015190505b6132af8582613231565b865550613317565b601f1984166132c586612e06565b60005b828110156132ed578489015182556001820191506020850194506020810190506132c8565b8683101561330a5784890151613306601f891682613213565b8355505b6001600288020188555050505b505050505050565b7f4e487b7100000000000000000000000000000000000000000000000000000000600052601160045260246000fd5b600061335982612135565b915061336483612135565b925082820190508082111561337c5761337b61331f565b5b92915050565b60006020820190506133976000830184612ce2565b92915050565b7f4e487b7100000000000000000000000000000000000000000000000000000000600052601260045260246000fd5b7f5552492063616e6e6f7420626520656d70747900000000000000000000000000600082015250565b60006134026013836122c8565b915061340d826133cc565b602082019050919050565b60006020820190508181036000830152613431816133f5565b9050919050565b613441816121d5565b82525050565b600060208201905061345c6000830184613438565b92915050565b60006040820190506134776000830185612ce2565b61348460208301846123d2565b9392505050565b60006080820190506134a06000830187612ce2565b6134ad60208301866121ab565b6134ba60408301856121ab565b6134c760608301846121ab565b95945050505050565b600060408201905081810360008301526134ea81856128a3565b905081810360208301526134fe81846128a3565b90509392505050565b600081519050919050565b600082825260208201905092915050565b600061352e82613507565b6135388185613512565b93506135488185602086016122d9565b61355181612303565b840191505092915050565b600060a0820190506135716000830188612ce2565b61357e6020830187612ce2565b61358b60408301866121ab565b61359860608301856121ab565b81810360808301526135aa8184613523565b90509695505050505050565b6000815190506135c581612201565b92915050565b6000602082840312156135e1576135e06120cd565b5b60006135ef848285016135b6565b91505092915050565b600060a08201905061360d6000830188612ce2565b61361a6020830187612ce2565b818103604083015261362c81866128a3565b9050818103606083015261364081856128a3565b905081810360808301526136548184613523565b9050969550505050505056fea2646970667358221220f89062492c0a90a3bf6e0872ad5b5976f927f8e47cd140986515b878c9bf129664736f6c634300081a0033",
  "linkReferences": {},
  "deployedLinkReferences": {}
}